:020000040000FA
:0600000000EF0CF01200FD
:0608000000EF0CF01200F5
:0608EA0001003A180000B5
:0808F000B2000000020000004C
:0808F8009490CA90CA82CA86DE
:10090000CA88CA8ACA8CE90ECB6ECA849D8200014D
:1009100085698669010E876F886B896F8A6B8B6F1B
:100920008C6B8D6F8E6B8F6F906B916F926B936FE3
:10093000946B936F946B956F966B1200060E00018B
:10094000A95D03E36D50020B01E07FD07FD8000169
:10095000851D01E1861D01E178D09EA276D0CA9462
:100960008B90240EE66E0EEC0CF0E5528B8085C069
:10097000E6FF0EEC0CF0E5528B90240EE66E0EECCA
:100980000CF0E5528B8087C0E6FF0EEC0CF0E552D0
:100990008B90240EE66E0EEC0CF0E5528B8089C035
:1009A000E6FF0EEC0CF0E5528B90240EE66E0EEC9A
:1009B0000CF0E5528B808BC0E6FF0EEC0CF0E5529C
:1009C0008B90240EE66E0EEC0CF0E5528B808DC001
:1009D000E6FF0EEC0CF0E5528B90240EE66E0EEC6A
:1009E0000CF0E5528B808FC0E6FF0EEC0CF0E55268
:1009F0008B90240EE66E0EEC0CF0E5528B8091C0CD
:100A0000E6FF0EEC0CF0E5528B90240EE66E0EEC39
:100A10000CF0E5528B8093C0E6FF0EEC0CF0E55233
:100A20008B90240EE66E0EEC0CF0E5528B8095C098
:100A3000E6FF0EEC0CF0E5528B90240EE66E0EEC09
:100A40000CF0E5528B809E92CA841200D9CFE6FF4B
:100A5000E1CFD9FFE652100EE66E710EE66E000E83
:100A6000E66E34EC0AF0E552E552E5520001606FA3
:100A7000605100083BE27151856F866B7251876F40
:100A8000886B7351896F8A6B74518B6F8C6B755146
:100A90008D6F8E6B76518F6F906B7751916F926BDC
:100AA0007851936F946B7951956F966B010EDF6E51
:100AB000DF5010080AE3DF04EA6A610FE96E000EF6
:100AC000EA22EF6ADF28DF6EF3D704010CAF03D010
:100AD00094EC0AF0FAD70A0EE66E610EE66E000E8E
:100AE000E66EFAEC09F0E552E552E552E552E552C0
:100AF000E7CFD9FF1200D9CFE6FFE1CFD9FFE65209
:100B000004011351030A20E0010A01E022D012512E
:100B100001E01AD0010EDF6EDF50100814E3DF048D
:100B2000EA6A300FE96E040EEA22EF50E66EDF0447
:100B3000EA6A400FE96E040EEA22E552E750EF6ED2
:100B4000DF28DF6EE9D700D00401125101E001D0A7
:100B500000D0E552E552E7CFD9FF12000001B251B3
:100B6000B31104E1100EB26F270EB36FB207000E7F
:100B7000B35B6DA20BD0B251B31107E18C708C50F6
:100B8000010B02E08C8201D08C922FD00001A95180
:100B900003E18C908C9229D0A90503E18C808C8292
:100BA00024D0020EA95D03E18C808C921ED0030E2E
:100BB000A95D03E18C908C8218D0050EA95D07E138
:100BC0000001B251B31102E18C708C920ED0060E6E
:100BD000A95D0BE10001B251B31107E18C708C509B
:100BE000010B02E08C9201D08C821200D9CFE6FF7B
:100BF000E1CFD9FFE6520001400EA36F040EA46FAF
:100C000000010A0EA76FE552E552E7CFD9FF1200A7
:100C1000D9CFE6FFE1CFD9FFE6520001500EA36F16
:100C2000040EA46F0001100EA76FE552E552E7CF46
:040C3000D9FF1200D6
:0C0C340004011051600BE842E842E84265
:100C4000E842E842000901E055D01151070A51E09D
:100C50000B0A4FE0070A40E0010A2CE00B0A28E0EB
:100C6000020A26E0030A22E0080A12E0010A0EE066
:100C70000F0A0AE0030A01E03CD00001010EA26F56
:100C80000001040EA96F36D036D834D090D832D0B7
:100C90000001010EA26F0001AB0EA36F000EA46F46
:100CA0000001AA930001010EA76F24D0A8D822D07A
:100CB000F4D820D00001010EA26F040114510001EC
:100CC000A36FA46BAC0EA327000EA4230001AA936C
:100CD0000001010EA76F0ED00001010EA26F0401EA
:100CE0001451EA6AAC0FE96E000EEA2212C4EFFF5B
:100CF00001D000D01200800E0401105D57E11351A5
:100D0000030A34E0010A10E0030A01E04DD00001BB
:100D1000010EA26F0001700EA36F160EA46F120ECB
:100D20000001A76FA86B40D00001010EA26F040163
:100D30001251F66EF76AD890F636F736040EF6269C
:100D4000170EF7220900F5CFA3F00A00F5CFA4F0A3
:100D5000020E0001F76AA325F66EA451F7220900DE
:100D6000F5CFA7F00A00F5CFA8F01ED00001010EC4
:100D7000A26F04011251F66EF76AD890F636F73674
:100D8000080EF626170EF7220900F5CFA3F00A0089
:100D9000F5CFA4F0A3C0F6FFA4C0F7FF0800F550FC
:100DA0000001A76FA86B00D00001AA831200000108
:100DB000010EA26F0F0EE66E710EE66E0F0EE66E5E
:100DC00023EC0BF0E552E552E552010EE66EAC0E57
:100DD000E66E000EE66E23EC0BF0E552E552E552AE
:100DE00012C4ABF00401125104E10001050EA96F19
:100DF00005D00001060EA96FE5EC09F01200040110
:100E0000206B216B040110511F0B020A14E0030A2E
:100E10000EE0010A01E033D00001010EA26F0401CF
:100E200020810001AAA102D00401208328D0000162
:100E3000010EA26F24D00001010EA26F0401145113
:100E40000F0B080DF350036A000F026E040E03220D
:100E50001451800B01E0010E040DF3500001022437
:100E6000A56F000E0320A66FA5C0E9FFA6C0EAFF8C
:100E7000EF50040B03E00401010E206F00D00001CD
:100E8000A2050AE10001200EA36F040EA46F000169
:100E9000AA930001020EA76F12000401120510E1CF
:100EA00010511F0B00090CE10001010EA26F030E8F
:100EB0000401115D03E10001AA8102D00001AA91A1
:100EC000040112513AE110511F0B020836E114518E
:100ED0000F0B000932E00001010EA26F0401145152
:100EE0000F0B080DF350036A000F026E040E03226D
:100EF0001451800B01E0010E040DF3500001022497
:100F0000A56F000E0320A66F030E0401115D07E11B
:100F1000840EA5C0E9FFA6C0EAFFEF6E0ED014AFA5
:100F200006D0A5C0E9FFA6C0EAFFEF6A06D0880E8A
:0C0F3000A5C0E9FFA6C0EAFFEF6E1200AA
:040F3C006C500BE109
:100F4000040100513C0BE842E8420D0802E108D8D8
:100F500001D03CD804D0040E6C5C01E14DD81200E5
:100F6000D9CFE6FFE1CFD9FFE6520001A16BA26B1A
:100F7000A76BA86B1AEC06F0DF6ADF50026E036AFB
:100F8000010E025C000E03581BE20001A25101E0B9
:100F900017D0F76ADF34FE0BF736F66E0E0EF62624
:100FA000170EF7220900F5CF02F00800F5CF03F085
:100FB00004D003C0FAFF0250F96EFBDFDF2ADDD751
:100FC000E3D8E552E552E7CFD9FF1200020E000147
:100FD000A15D10E19CD8020E0001A25D02E17BEC54
:100FE00005F0040100BD03D0C80E006F02D0880ECA
:100FF000006F01D00FD91200040E0001A95D0AE1B3
:1010000012C46EFF6E50000803E2050EA96F02D0F5
:10101000030EA96F0001A1050AE10BD8040104BD6C
:1010200003D0C80E046F02D0880E046F01D0F2D82E
:101030001200D9CFE6FFE1CFD9FF020EE126000171
:10104000100EA75D000EA85905E2A7C0DEFFA8C0DC
:10105000DDFF03D0100EDE6EDD6A040104930491FF
:10106000010EDB500413DFCF05F4000EDB5000014E
:10107000A75F010EDB50A85B200EA56F040EA66FC4
:101080000001AAA31ED0D9CFE9FFDACFEAFFEE50C4
:10109000ED1016E0A3C0F6FFA4C0F7FF0800F5505E
:1010A000A5C0E9FFA6C0EAFFEF6E0001A52B000E68
:1010B000A623A32BA423DF06010E01E2DB06E3D760
:1010C0001CD0D9CFE9FFDACFEAFFEE50ED1015E0E2
:1010D000A3C0E9FFA4C0EAFFEF50A5C0E9FFA6C086
:1010E000EAFFEF6E0001A52B000EA623A32BA4237D
:1010F000DF06010E01E2DB06E4D7020EE15C02E24C
:10110000E16AE552E16EE552E7CFD9FF1200D9CF8F
:10111000E6FFE1CFD9FF020EE126030E0401001520
:10112000E76E010EE7CFDBFF01C4DFFFDE500001F9
:10113000A727DD50A823200EA36F040EA46FD9CFDC
:10114000E9FFDACFEAFFEE50ED1014E0A3C0E9FFAB
:10115000A4C0EAFFEF50A5C0E9FFA6C0EAFFEF6E0A
:10116000A52B000EA623A32BA423DF06010E01E26C
:10117000DB06E5D7020EE15C02E2E16AE552E16ED0
:10118000E552E7CFD9FF12006D980001A2510CE1A2
:101190000401100E016F100E026F040E036F840E17
:1011A000006F0401046F35D0040110AF22D000019C
:1011B000A7510401165D0001A8510401175904E26A
:1011C00016C4A7F017C4A8F034DF0001010EA16F08
:1011D0000401100E016F100E026F040E036F800EDB
:1011E000006F0401200E066F040E076FC80E046F17
:1011F00010D00001020EA16F0401056BC80E046F30
:101200000401100E016F200E026F040E036FC80E52
:10121000006F12000001A16B0401100E016F100E8F
:10122000026F040E036F880E006F0401046B12003E
:10123000040110511F0B010801E079D0145101E0A5
:1012400076D0060E115D2EE11351230A28E0010A23
:1012500013E0030A01E024D00001020EA26F000196
:10126000AB0505E10001940EA36F160EA46F090EE5
:101270000001A76FA86B14D00001020EA26F00013D
:10128000AB0505E10001D50EA36F160EA46F00019A
:10129000AB0504E12F0E0001A76FA86B01D000D0B1
:1012A0000001AA8304011051600BE842E842E842C1
:1012B000E842E842010801E03AD011510B0A31E05E
:1012C000080A21E0090A19E0080A09E00B0A05E00A
:1012D000080A01E02CD02CD82AD055D828D00001FB
:1012E000020EA26F0001AD0EA36F000EA46F0001ED
:1012F000AA930001010EA76F1AD00001020EA26F7F
:1013000013C4ADF014D00001020EA26F0001AE0EA6
:10131000A36F000EA46F0001AA930001010EA76F36
:1013200006D00001020EA26F12C4AEF000D012006F
:10133000D9CFE6FFE1CFD9FFE65204011351030AEA
:1013400011E0020A01E018D01251010A09E0010A75
:1013500001E007D00001020EA26FF6EC05F001D00B
:1013600000D00AD0125101E006D00001020EA26F97
:1013700008EC06F000D000D00001AA93E552E55237
:10138000E7CFD9FF120004011351030A10E0010A4C
:1013900001E01AD0125101E009D00001020EA26F43
:1013A0000001300EA56F040EA66F00D00DD01251B3
:1013B00001E009D00001020EA26F0001500EA56FDE
:1013C000040EA66F00D000D012000001AF6B1E0EFD
:1013D000716E0401100E096F300E0A6F040E0B6F50
:1013E000880E086F0401400E0E6F040E0F6F400E42
:1013F0000C6F1200D9CFE6FFE1CFD9FFE652FC0E09
:10140000DB50100805E2100EF36EFC0EF3CFDBFF8D
:10141000DF6AFC0EDB50DF5C19E2DF50E76EFD0E89
:10142000DBCFE9FFFE0EDBCFEAFFE750E926000E37
:10143000EA22EF50E66EDF50EA6A400FE96E040ED2
:10144000EA22E552E750EF6EDF2AE3D7FC0EDBCF4E
:101450000DF4400E04010C170C7D880E0C13E552A0
:10146000E552E7CFD9FF1200D9CFE6FFE1CFD9FF90
:101470000001AF6B040108BF31D0FC0EDBCF02F0DE
:101480000951D880025403E2FC0E09C4DBFF0001BD
:10149000AF6BFC0EDB50AF5D19E2AF51EA6A300F63
:1014A000E96E040EEA22EF50E66EAF51E76EFD0ED4
:1014B000DBCFE9FFFE0EDBCFEAFFE750E926000EA7
:1014C000EA22E552E750EF6EAF2BE3D70401100E8E
:1014D000096F400E0817087D880E08130001AF51F0
:0A14E00000D0E552E7CFD9FF12005B
:0614EA006DA60FD802D030
:1014F0006DB613D80001A90508E16DBA06D0686A77
:10150000696A69806988020EA96F12006D6A696A4A
:101510006D860001010EA96F12006D6A696A0001F3
:10152000A96B12008DEF0AF00001A95101E13AD038
:101530006850040B04E06950040B01E041D86DB21F
:1015400031D06850010B04E06950010B01E059D81B
:101550006850100B04E06950100B01E024D868506B
:10156000400B04E06950400B01E040D86850200B6C
:1015700004E06950200B01E03BD86850020B04E006
:101580006950020B01E03BD8030E0001A95D01E2A6
:1015900009D06850080B06E06950080B03E09EEC88
:1015A00007F068961200698468986D82A19AF2909B
:1015B000A08AF2860300F2B007D8A09AF296120031
:1015C0006D926994689412000001AAA10ED0F8DF10
:1015D0006D840001080EB06F070EB16FB007000EEA
:1015E000B15BB051B111FAE16D941200689C120028
:1015F00070A003D00AEC09F07090689A120068920B
:1016000012006A6A686A9F0E6B6E7B0E696E6E6A64
:101610000F0EE66E710EE66E0F0EE66E14D8E552F2
:10162000E552E552160E706E68A602D06896FCD799
:101630006D980AEC09F00001AA910001AB6B000162
:10164000030EA96F1200D9CFE6FFE1CFD9FFFD0E3F
:10165000DBCFE9FFFE0EDBCFEAFFFC0EDB5004E040
:10166000EE6AFC0EDB06F9D7E552E7CFD9FF120090
:101670001201000200000010250999120100010268
:10168000000109022900010100A032090400000242
:1016900003000000092101010001222F000705813C
:1016A0000310000A0705010310000A040309041CC3
:1016B0000345006E0064007500720061006E0063F7
:1016C000006500200052002F0043000A0350004331
:1016D000005400780006A0FF0901A10109031500CC
:1016E0002600FF750895108102090415002600FFE9
:1016F000750895109102090515002600FF750895DB
:1017000010B102C082168216AB16AF16CB1630127D
:10171000EA0EF66E080EF76E000EF86E0001090074
:10172000F5509C6F0900F5509D6F03E19C6701D057
:101730003DD00900F550976F0900F550986F0900EA
:10174000F550996F09000900F550E96E0900F55050
:10175000EA6E090009000900F5509A6F0900F5507A
:101760009B6F09000900F6CF9EF0F7CF9FF0F8CFEE
:10177000A0F097C0F6FF98C0F7FF99C0F8FF0001EE
:101780009A5302E19B5307E00900F550EE6E9A0769
:10179000F8E29B07F9D79EC0F6FF9FC0F7FFA0C0F5
:0E17A000F8FF00019C07000E9D5BBFD71200F2
:0217AE0005D85C
:1017B00010D89EEC04F0FCD712000F0EC112140ECC
:1017C0006F6E0001A96B0001AA6B0001AB6B7CEF8F
:1017D00004F075EC0AF06FBE02D094EC0AF012002F
:1017E000000EF36E00EE00F0040E01D81200EA6065
:1017F00002D0EE6AFCD7F350E9601200EE6AFCD723
:1018000013EE00F023EE00F0F86A019C88EC0BF078
:0C1810001CEC0CF0D7EC0BF0FBD7120026
:04181C00FF0EE35088
:10182000046E1B0E00D001D0200EE76EE72EFED70F
:08183000042EFAD700D01200CB
:0218380012009C
:02183A000000AC
:00000001FF
